{
  "contractName": "LibraryDemo",
  "abi": [
    {
      "constant": true,
      "inputs": [
        {
          "internalType": "uint256",
          "name": "_a",
          "type": "uint256"
        },
        {
          "internalType": "uint256",
          "name": "_b",
          "type": "uint256"
        }
      ],
      "name": "multiply",
      "outputs": [
        {
          "internalType": "uint256",
          "name": "",
          "type": "uint256"
        }
      ],
      "payable": false,
      "stateMutability": "pure",
      "type": "function"
    }
  ],
  "bytecode": "0x608060405234801561001057600080fd5b5061014f806100206000396000f3fe608060405234801561001057600080fd5b506004361061002b5760003560e01c8063165c4a1614610030575b600080fd5b6100666004803603604081101561004657600080fd5b81019080803590602001909291908035906020019092919050505061007c565b6040518082815260200191505060405180910390f35b60008273__MathLibrary___________________________639aa727f69091846040518363ffffffff1660e01b8152600401808381526020018281526020019250505060206040518083038186803b1580156100d757600080fd5b505af41580156100eb573d6000803e3d6000fd5b505050506040513d602081101561010157600080fd5b810190808051906020019092919050505090509291505056fea265627a7a72315820402e589e3ab9ff97d4cb5ba683ea6dadf1bcb601de8a7964e7df93ef9f9aeb1c64736f6c63430005100032",
  "source": "pragma solidity ^0.5.0;\n\nlibrary MathLibrary {\n    function mult(uint256 a, uint256 b) public pure returns (uint256) {\n        return a * b;\n    }\n}\n\ncontract LibraryDemo {\n    using MathLibrary for uint256;\n\n    function multiply(uint256 _a, uint256 _b) public pure returns (uint256) {\n        return _a.mult(_b);\n    }\n}\n",
  "sourcePath": "/home/mustafa/Code/blockchain/ConsenSys/PrivateStamp/contracts/LibraryDemo.sol",
  "compiler": {
    "name": "solc",
    "version": "0.5.16+commit.9c3226ce.Emscripten.clang"
  },
  "schemaVersion": "3.0.22",
  "updatedAt": "2020-02-02T03:01:36.135Z",
  "devdoc": {
    "methods": {}
  },
  "userdoc": {
    "methods": {}
  }
}