{
  "contractName": "MathLibrary",
  "abi": [
    {
      "constant": true,
      "inputs": [
        {
          "internalType": "uint256",
          "name": "a",
          "type": "uint256"
        },
        {
          "internalType": "uint256",
          "name": "b",
          "type": "uint256"
        }
      ],
      "name": "mult",
      "outputs": [
        {
          "internalType": "uint256",
          "name": "",
          "type": "uint256"
        }
      ],
      "payable": false,
      "stateMutability": "pure",
      "type": "function"
    }
  ],
  "bytecode": "0x60c3610025600b82828239805160001a60731461001857fe5b30600052607381538281f3fe730000000000000000000000000000000000000000301460806040526004361060335760003560e01c80639aa727f6146038575b600080fd5b606b60048036036040811015604c57600080fd5b8101908080359060200190929190803590602001909291905050506081565b6040518082815260200191505060405180910390f35b600081830290509291505056fea265627a7a723158206ca9fa6c48532992d7e30a2862dd688b895a8016dcbfa6411115745d7265571464736f6c63430005100032",
  "source": "pragma solidity ^0.5.0;\n\nlibrary MathLibrary {\n    function mult(uint256 a, uint256 b) public pure returns (uint256) {\n        return a * b;\n    }\n}\n\ncontract LibraryDemo {\n    using MathLibrary for uint256;\n\n    function multiply(uint256 _a, uint256 _b) public pure returns (uint256) {\n        return _a.mult(_b);\n    }\n}\n",
  "sourcePath": "/home/mustafa/Code/blockchain/ConsenSys/PrivateStamp/contracts/LibraryDemo.sol",
  "compiler": {
    "name": "solc",
    "version": "0.5.16+commit.9c3226ce.Emscripten.clang"
  },
  "schemaVersion": "3.0.22",
  "updatedAt": "2020-02-02T03:01:36.155Z",
  "devdoc": {
    "methods": {}
  },
  "userdoc": {
    "methods": {}
  }
}