{
  "contractName": "ProofOfExistence",
  "abi": [
    {
      "inputs": [],
      "payable": false,
      "stateMutability": "nonpayable",
      "type": "constructor"
    },
    {
      "anonymous": false,
      "inputs": [
        {
          "indexed": true,
          "internalType": "address",
          "name": "stampper",
          "type": "address"
        },
        {
          "indexed": false,
          "internalType": "uint256",
          "name": "blockNumber",
          "type": "uint256"
        },
        {
          "indexed": false,
          "internalType": "string",
          "name": "hash",
          "type": "string"
        }
      ],
      "name": "LogAdditionEvent",
      "type": "event"
    },
    {
      "anonymous": false,
      "inputs": [
        {
          "indexed": false,
          "internalType": "uint256",
          "name": "appVersion",
          "type": "uint256"
        }
      ],
      "name": "LogAppVersionUpdated",
      "type": "event"
    },
    {
      "anonymous": false,
      "inputs": [
        {
          "indexed": false,
          "internalType": "bool",
          "name": "contractStatus",
          "type": "bool"
        }
      ],
      "name": "LogContractStatusUpdated",
      "type": "event"
    },
    {
      "constant": true,
      "inputs": [],
      "name": "contractStatus",
      "outputs": [
        {
          "internalType": "bool",
          "name": "",
          "type": "bool"
        }
      ],
      "payable": false,
      "stateMutability": "view",
      "type": "function"
    },
    {
      "constant": false,
      "inputs": [
        {
          "internalType": "string",
          "name": "hash",
          "type": "string"
        }
      ],
      "name": "storeHash",
      "outputs": [],
      "payable": false,
      "stateMutability": "nonpayable",
      "type": "function"
    },
    {
      "constant": true,
      "inputs": [
        {
          "internalType": "address",
          "name": "stampper",
          "type": "address"
        },
        {
          "internalType": "string",
          "name": "hash",
          "type": "string"
        }
      ],
      "name": "verifyHash",
      "outputs": [
        {
          "internalType": "uint256",
          "name": "",
          "type": "uint256"
        }
      ],
      "payable": false,
      "stateMutability": "view",
      "type": "function"
    },
    {
      "constant": false,
      "inputs": [
        {
          "internalType": "uint256",
          "name": "_appVersion",
          "type": "uint256"
        }
      ],
      "name": "updateAppVersion",
      "outputs": [],
      "payable": false,
      "stateMutability": "nonpayable",
      "type": "function"
    },
    {
      "constant": true,
      "inputs": [],
      "name": "getAppVersion",
      "outputs": [
        {
          "internalType": "uint256",
          "name": "",
          "type": "uint256"
        }
      ],
      "payable": false,
      "stateMutability": "view",
      "type": "function"
    },
    {
      "constant": false,
      "inputs": [
        {
          "internalType": "bool",
          "name": "_contractStatus",
          "type": "bool"
        }
      ],
      "name": "updateContractStatus",
      "outputs": [],
      "payable": false,
      "stateMutability": "nonpayable",
      "type": "function"
    },
    {
      "constant": true,
      "inputs": [],
      "name": "getContractStatus",
      "outputs": [
        {
          "internalType": "bool",
          "name": "",
          "type": "bool"
        }
      ],
      "payable": false,
      "stateMutability": "view",
      "type": "function"
    }
  ],
  "bytecode": "0x60806040526001600260006101000a81548160ff02191690831515021790555034801561002b57600080fd5b50336000806101000a81548173ffffffffffffffffffffffffffffffffffffffff021916908373ffffffffffffffffffffffffffffffffffffffff1602179055506109b48061007b6000396000f3fe608060405234801561001057600080fd5b506004361061007d5760003560e01c8063a20ce5101161005b578063a20ce5101461025c578063c032846b1461027a578063c6ee20d21461029c578063db0f0500146102be5761007d565b806315c237f0146100825780631c557fa21461017157806371dc61cb146101a1575b600080fd5b61015b6004803603604081101561009857600080fd5b81019080803573ffffffffffffffffffffffffffffffffffffffff169060200190929190803590602001906401000000008111156100d557600080fd5b8201836020820111156100e757600080fd5b8035906020019184600183028401116401000000008311171561010957600080fd5b91908080601f016020809104026020016040519081016040528093929190818152602001838380828437600081840152601f19601f8201169050808301925050505050505091929192905050506102ec565b6040518082815260200191505060405180910390f35b61019f6004803603602081101561018757600080fd5b8101908080351515906020019092919050505061041f565b005b61025a600480360360208110156101b757600080fd5b81019080803590602001906401000000008111156101d457600080fd5b8201836020820111156101e657600080fd5b8035906020019184600183028401116401000000008311171561020857600080fd5b91908080601f016020809104026020016040519081016040528093929190818152602001838380828437600081840152601f19601f820116905080830192505050505050509192919290505050610539565b005b610264610823565b6040518082815260200191505060405180910390f35b61028261082d565b604051808215151515815260200191505060405180910390f35b6102a4610844565b604051808215151515815260200191505060405180910390f35b6102ea600480360360208110156102d457600080fd5b8101908080359060200190929190505050610857565b005b6000600260009054906101000a900460ff16610370576040517f08c379a000000000000000000000000000000000000000000000000000000000815260040180806020018281038252601f8152602001807f54686520636f6e747261637420697320646f776e2063757272656e746c79210081525060200191505060405180910390fd5b600360008473ffffffffffffffffffffffffffffffffffffffff1673ffffffffffffffffffffffffffffffffffffffff168152602001908152602001600020826040518082805190602001908083835b602083106103e357805182526020820191506020810190506020830392506103c0565b6001836020036101000a038019825116818451168082178552505050505050905001915050908152602001604051809103902054905092915050565b6000809054906101000a900473ffffffffffffffffffffffffffffffffffffffff1673ffffffffffffffffffffffffffffffffffffffff163373ffffffffffffffffffffffffffffffffffffffff16146104e1576040517f08c379a00000000000000000000000000000000000000000000000000000000081526004018080602001828103825260168152602001807f596f75206d75737420626520746865206f776e6572210000000000000000000081525060200191505060405180910390fd5b80600260006101000a81548160ff0219169083151502179055507fe8c4583fcc8f9498bb06ec49ea53be5509aea214eade24c3b0a723f27bd55e4281604051808215151515815260200191505060405180910390a150565b600260009054906101000a900460ff166105bb576040517f08c379a000000000000000000000000000000000000000000000000000000000815260040180806020018281038252601f8152602001807f54686520636f6e747261637420697320646f776e2063757272656e746c79210081525060200191505060405180910390fd5b6000600360003373ffffffffffffffffffffffffffffffffffffffff1673ffffffffffffffffffffffffffffffffffffffff168152602001908152602001600020826040518082805190602001908083835b60208310610630578051825260208201915060208101905060208303925061060d565b6001836020036101000a038019825116818451168082178552505050505050905001915050908152602001604051809103902054146106ba576040517f08c379a000000000000000000000000000000000000000000000000000000000815260040180806020018281038252602581526020018061095b6025913960400191505060405180910390fd5b43600360003373ffffffffffffffffffffffffffffffffffffffff1673ffffffffffffffffffffffffffffffffffffffff168152602001908152602001600020826040518082805190602001908083835b6020831061072e578051825260208201915060208101905060208303925061070b565b6001836020036101000a0380198251168184511680821785525050505050509050019150509081526020016040518091039020819055503373ffffffffffffffffffffffffffffffffffffffff167f9bec25e13211d0698a12c807bc1160b0d141cb675a7fce829003fc6e28b832ad43836040518083815260200180602001828103825283818151815260200191508051906020019080838360005b838110156107e55780820151818401526020810190506107ca565b50505050905090810190601f1680156108125780820380516001836020036101000a031916815260200191505b50935050505060405180910390a250565b6000600154905090565b6000600260009054906101000a900460ff16905090565b600260009054906101000a900460ff1681565b6000809054906101000a900473ffffffffffffffffffffffffffffffffffffffff1673ffffffffffffffffffffffffffffffffffffffff163373ffffffffffffffffffffffffffffffffffffffff1614610919576040517f08c379a00000000000000000000000000000000000000000000000000000000081526004018080602001828103825260168152602001807f596f75206d75737420626520746865206f776e6572210000000000000000000081525060200191505060405180910390fd5b806001819055507fe5d8a89bfc0aeed2cb21fb4c47f231e92f20dcf6dec4e284e2ab6fd46248cbaf816040518082815260200191505060405180910390a15056fe54686973206861736820686173206265656e2073746f7265642070726576696f75736c7921a265627a7a72315820b9802e8a02e68057123c51f6b90e5ec3b2a11e5ee2badf4e76261f24894b542f64736f6c63430005100032",
  "source": "pragma solidity ^0.5.0;\n\n/**\n * @author Mustafa Refaey <mustafarefaey@gmail.com>\n * @dev Implementation of proof of existence contract.\n */\ncontract ProofOfExistence {\n    /// the owner of the contract\n    address owner;\n\n    /// frontend app version\n    uint256 appVersion;\n\n    /// a circuit breaker to stop the contract\n    bool public contractStatus = true;\n\n    /// a mapping of the hash uploaders and their hashes, stamped by the block number\n    mapping(address => mapping(string => uint256)) private hashes;\n\n    /// an event to be emitted when a new hash has been added\n    event LogAdditionEvent(\n        address indexed stampper,\n        uint256 blockNumber,\n        string hash\n    );\n\n    /// an event to be emitted when a new hash has been added\n    event LogAppVersionUpdated(uint256 appVersion);\n\n    /// an event to be emitted when the contract status is updated\n    event LogContractStatusUpdated(bool contractStatus);\n\n    /// checks if the msg.sender is the owner of the contract\n    modifier ownerOnly() {\n        require(msg.sender == owner, \"You must be the owner!\");\n        _;\n    }\n\n    /// stopInEmergency\n    modifier stopInEmergency {\n        require(contractStatus, \"The contract is down currently!\");\n        _;\n    }\n\n    constructor() public {\n        /// set the owner as the contract deployer\n        owner = msg.sender;\n    }\n\n    /// @notice Stores the hash in the contract's state\n    /// @param hash The hash to be stored\n    function storeHash(string memory hash) public stopInEmergency {\n        require(\n            hashes[msg.sender][hash] == 0,\n            \"This hash has been stored previously!\"\n        );\n\n        hashes[msg.sender][hash] = block.number;\n\n        emit LogAdditionEvent(msg.sender, block.number, hash);\n    }\n\n    /// @notice Verifies if the hash exists\n    /// @param stampper The address of the stampper\n    /// @param hash The hash to be stored\n    /// @return the block number of a hash if it exists in the contract's state\n    /// or returns 0\n    function verifyHash(address stampper, string memory hash)\n        public\n        view\n        stopInEmergency\n        returns (uint256)\n    {\n        return hashes[stampper][hash];\n    }\n\n    /// @notice Updates the frontend app version\n    /// @param _appVersion The new frontend app version\n    function updateAppVersion(uint256 _appVersion) public ownerOnly {\n        appVersion = _appVersion;\n\n        emit LogAppVersionUpdated(_appVersion);\n    }\n\n    /// @notice Retrieves the frontend app version\n    /// @return the frontend app version\n    function getAppVersion() public view returns (uint256) {\n        return appVersion;\n    }\n\n    /// @notice Enable/Disable contract functionality (a circuit breaker)\n    /// @param _contractStatus The new circuit breaker state\n    function updateContractStatus(bool _contractStatus) public ownerOnly {\n        contractStatus = _contractStatus;\n\n        emit LogContractStatusUpdated(_contractStatus);\n    }\n\n    /// @notice Retrieves the contract status\n    /// @return the contract status\n    function getContractStatus() public view returns (bool) {\n        return contractStatus;\n    }\n}\n",
  "sourcePath": "/home/mustafa/Code/blockchain/ConsenSys/PrivateStamp/contracts/ProofOfExistence.sol",
  "compiler": {
    "name": "solc",
    "version": "0.5.16+commit.9c3226ce.Emscripten.clang"
  },
  "schemaVersion": "3.0.22",
  "updatedAt": "2020-02-02T03:01:37.075Z",
  "networkType": "ethereum",
  "devdoc": {
    "author": "Mustafa Refaey <mustafarefaey@gmail.com>",
    "details": "Implementation of proof of existence contract.",
    "methods": {
      "getAppVersion()": {
        "return": "the frontend app version"
      },
      "getContractStatus()": {
        "return": "the contract status"
      },
      "storeHash(string)": {
        "params": {
          "hash": "The hash to be stored"
        }
      },
      "updateAppVersion(uint256)": {
        "params": {
          "_appVersion": "The new frontend app version"
        }
      },
      "updateContractStatus(bool)": {
        "params": {
          "_contractStatus": "The new circuit breaker state"
        }
      },
      "verifyHash(address,string)": {
        "params": {
          "hash": "The hash to be stored",
          "stampper": "The address of the stampper"
        },
        "return": "the block number of a hash if it exists in the contract's state or returns 0"
      }
    }
  },
  "userdoc": {
    "methods": {
      "getAppVersion()": {
        "notice": "Retrieves the frontend app version"
      },
      "getContractStatus()": {
        "notice": "Retrieves the contract status"
      },
      "storeHash(string)": {
        "notice": "Stores the hash in the contract's state"
      },
      "updateAppVersion(uint256)": {
        "notice": "Updates the frontend app version"
      },
      "updateContractStatus(bool)": {
        "notice": "Enable/Disable contract functionality (a circuit breaker)"
      },
      "verifyHash(address,string)": {
        "notice": "Verifies if the hash exists"
      }
    }
  }
}