{
  "contractName": "ProofOfExistence",
  "abi": [
    {
      "anonymous": false,
      "inputs": [
        {
          "indexed": true,
          "internalType": "address",
          "name": "hashUploader",
          "type": "address"
        },
        {
          "indexed": false,
          "internalType": "uint256",
          "name": "blockNumber",
          "type": "uint256"
        },
        {
          "indexed": false,
          "internalType": "string",
          "name": "hash",
          "type": "string"
        }
      ],
      "name": "LogAdditionEvent",
      "type": "event"
    },
    {
      "constant": false,
      "inputs": [
        {
          "internalType": "string",
          "name": "hash",
          "type": "string"
        }
      ],
      "name": "storeHash",
      "outputs": [],
      "payable": false,
      "stateMutability": "nonpayable",
      "type": "function"
    },
    {
      "constant": true,
      "inputs": [
        {
          "internalType": "address",
          "name": "hashUploader",
          "type": "address"
        },
        {
          "internalType": "string",
          "name": "hash",
          "type": "string"
        }
      ],
      "name": "verifyHash",
      "outputs": [
        {
          "internalType": "uint256",
          "name": "",
          "type": "uint256"
        }
      ],
      "payable": false,
      "stateMutability": "view",
      "type": "function"
    }
  ],
  "bytecode": "0x608060405234801561001057600080fd5b50610555806100206000396000f3fe608060405234801561001057600080fd5b50600436106100365760003560e01c806315c237f01461003b57806371dc61cb1461012a575b600080fd5b6101146004803603604081101561005157600080fd5b81019080803573ffffffffffffffffffffffffffffffffffffffff1690602001909291908035906020019064010000000081111561008e57600080fd5b8201836020820111156100a057600080fd5b803590602001918460018302840111640100000000831117156100c257600080fd5b91908080601f016020809104026020016040519081016040528093929190818152602001838380828437600081840152601f19601f8201169050808301925050505050505091929192905050506101e5565b6040518082815260200191505060405180910390f35b6101e36004803603602081101561014057600080fd5b810190808035906020019064010000000081111561015d57600080fd5b82018360208201111561016f57600080fd5b8035906020019184600183028401116401000000008311171561019157600080fd5b91908080601f016020809104026020016040519081016040528093929190818152602001838380828437600081840152601f19601f820116905080830192505050505050509192919290505050610295565b005b60008060008473ffffffffffffffffffffffffffffffffffffffff1673ffffffffffffffffffffffffffffffffffffffff168152602001908152602001600020826040518082805190602001908083835b602083106102595780518252602082019150602081019050602083039250610236565b6001836020036101000a038019825116818451168082178552505050505050905001915050908152602001604051809103902054905092915050565b60008060003373ffffffffffffffffffffffffffffffffffffffff1673ffffffffffffffffffffffffffffffffffffffff168152602001908152602001600020826040518082805190602001908083835b6020831061030957805182526020820191506020810190506020830392506102e6565b6001836020036101000a03801982511681845116808217855250505050505090500191505090815260200160405180910390205414610393576040517f08c379a00000000000000000000000000000000000000000000000000000000081526004018080602001828103825260258152602001806104fc6025913960400191505060405180910390fd5b436000803373ffffffffffffffffffffffffffffffffffffffff1673ffffffffffffffffffffffffffffffffffffffff168152602001908152602001600020826040518082805190602001908083835b6020831061040657805182526020820191506020810190506020830392506103e3565b6001836020036101000a0380198251168184511680821785525050505050509050019150509081526020016040518091039020819055503373ffffffffffffffffffffffffffffffffffffffff167f9bec25e13211d0698a12c807bc1160b0d141cb675a7fce829003fc6e28b832ad43836040518083815260200180602001828103825283818151815260200191508051906020019080838360005b838110156104bd5780820151818401526020810190506104a2565b50505050905090810190601f1680156104ea5780820380516001836020036101000a031916815260200191505b50935050505060405180910390a25056fe54686973206861736820686173206265656e2073746f7265642070726576696f75736c7921a265627a7a72315820a96e3f2621722912652bb32e32663d57322544f70a3440dddcefb0570d46d2af64736f6c63430005100032",
  "source": "pragma solidity ^0.5.0;\n\n/**\n * @author Mustafa Refaey <mustafarefaey@gmail.com>\n * @dev Implementation of proof of existence contract.\n */\ncontract ProofOfExistence {\n    /// a mapping of the hash uploaders and their hashes, timestamped by the block number\n    mapping(address => mapping(string => uint256)) private hashes;\n\n    /// an event to be emitted when a new hash has been added\n    event LogAdditionEvent(\n        address indexed hashUploader,\n        uint256 blockNumber,\n        string hash\n    );\n\n    /// @notice Stores the hash in the contract's state\n    /// @param hash The hash to be stored\n    function storeHash(string memory hash) public {\n        require(\n            hashes[msg.sender][hash] == 0,\n            \"This hash has been stored previously!\"\n        );\n\n        hashes[msg.sender][hash] = block.number;\n\n        emit LogAdditionEvent(msg.sender, block.number, hash);\n    }\n\n    /// @notice Verifies if the hash exists\n    /// @param hashUploader The address of the hash uploader\n    /// @param hash The hash to be stored\n    /// @return the block number of a hash if it exists in the contract's state\n    /// or returns 0\n    function verifyHash(address hashUploader, string memory hash)\n        public\n        view\n        returns (uint256)\n    {\n        return hashes[hashUploader][hash];\n    }\n}\n",
  "sourcePath": "/home/alpha/Code/blockchain/ConsenSys/Private-proof-of-existence/contracts/ProofOfExistence.sol",
  "compiler": {
    "name": "solc",
    "version": "0.5.16+commit.9c3226ce.Emscripten.clang"
  },
  "schemaVersion": "3.0.22",
  "updatedAt": "2020-01-28T22:17:26.172Z",
  "networkType": "ethereum",
  "devdoc": {
    "author": "Mustafa Refaey <mustafarefaey@gmail.com>",
    "details": "Implementation of proof of existence contract.",
    "methods": {
      "storeHash(string)": {
        "params": {
          "hash": "The hash to be stored"
        }
      },
      "verifyHash(address,string)": {
        "params": {
          "hash": "The hash to be stored",
          "hashUploader": "The address of the hash uploader"
        },
        "return": "the block number of a hash if it exists in the contract's state or returns 0"
      }
    }
  },
  "userdoc": {
    "methods": {
      "storeHash(string)": {
        "notice": "Stores the hash in the contract's state"
      },
      "verifyHash(address,string)": {
        "notice": "Verifies if the hash exists"
      }
    }
  }
}